:0A2E1000000102020303040405059B
:101D2F00E4F557F556F555F554C203C200C202C289
:101D3F0001121EE17E287F008E0F8F1075192875F6
:101D4F001A12750D28750E1C751528751643751BFF
:101D5F0028751C5CEE54E07003021E7375580075F5
:101D6F0059808E5A8F5BC374989FFF74289ECF241F
:101D7F0002CF3400FEE48F538E52F551F550F54FDC
:101D8F00F54EF54DF54CAF53AE52AD51AC50AB4F88
:101D9F00AA4EA94DA84CC3120FB85026E559254F8E
:101DAF00F582E558354EF58374CDF0E54F2401F5F6
:101DBF004FE4354EF54EE4354DF54DE4354CF54CCD
:101DCF0080C4E4F54FF54EF54DF54CAF53AE52AD23
:101DDF0051AC50AB4FAA4EA94DA84CC3120FB850DF
:101DEF0031AE4EAF4FE55B2FF582E55A3EF583E0FE
:101DFF00FDE5592FF582E5583EF583EDF0EF24010F
:101E0F00F54FE43EF54EE4354DF54DE4354CF54CCC
:101E1F0080B985580F85591074002480FF742834B9
:101E2F00FFFEC3E51A9FF51AE5199EF519C3E512D2
:101E3F009FF512E5119EF511C3E5149FF514E513F7
:101E4F009EF513C3E50E9FF50EE50D9EF50DC3E54B
:101E5F00169FF516E5159EF515C3E51C9FF51CE5B8
:101E6F001B9EF51BD2E843D82090E668E04409F0AA
:101E7F0090E65CE0443DF0D2AFD288D28AC2A8C2CD
:101E8F00AA90E680E020E105D208122B9290E6801E
:101E9F00E054F7F0538EF8C203300105121B0BC24A
:101EAF00013003291227FE5024C203122C3F2000B9
:101EBF001690E682E030E704E020E1EF90E682E062
:101ECF0030E604E020E0E4122BC1122E321216503D
:021EDF0080C7BA
:101B0B0090E6B9E07003021BBC147003021C39246D
:101B1B00FE7003021CBC24FB7003021BB614700383
:101B2B00021BB014607314607624056003021D1B46
:101B3B00122E344003021D2790E6BBE024FE6022E8
:101B4B0014603324FD601114602224067048E50FE5
:101B5B0090E6B3F0E5108037E51990E6B3F0E51A9F
:101B6B00802DE51190E6B3F0E5128023E51390E6A6
:101B7B00B3F0E514801990E6BAE0FF122BEDAA063C
:101B8B00A9077B01EA494B600DEE90E6B3F0EF90AD
:101B9B00E6B4F0021D27021D20122DEC021D2712A8
:101BAB002E1A021D27122D8D021D27122DDA021D52
:101BBB0027122E364003021D2790E6B8E0247F60E3
:101BCB001514601924027063A200E43325E0FFA210
:101BDB0002E4334F8041E490E740F0803F90E6BC55
:101BEB00E0547EFF7E00E0D394807C0040047D01B6
:101BFB0080027D00EC4EFEED4F2410F582742E3EDC
:101C0B00F583E493FF3395E0FEEF24A1FFEE34E67A
:101C1B008F82F583E0540190E740F0E4A3F090E667
:101C2B008AF090E68B7402F0021D27021D20122E03
:101C3B00384003021D2790E6B8E024FE601624020C
:101C4B006003021D2790E6BAE0B40105C200021D35
:101C5B0027021D2090E6BAE0705590E6BCE0547E5A
:101C6B00FF7E00E0D394807C0040047D0180027DE8
:101C7B0000EC4EFEED4F2410F582742E3EF583E4FE
:101C8B0093FF3395E0FEEF24A1FFEE34E68F82F550
:101C9B0083E054FEF090E6BCE05480131313541F02
:101CAB00FFE0540F2F90E683F0E04420F0806D802E
:101CBB0064122E3A506690E6B8E024FE60192402B6
:101CCB00705A90E6BAE0B40104D200804F90E6BAA5
:101CDB00E064026047803E90E6BCE0547EFF7E00ED
:101CEB00E0D394807C0040047D0180027D00EC4EAB
:101CFB00FEED4F2410F582742E3EF583E493FF33F3
:101D0B0095E0FEEF24A1FFEE34E68F82F583800889
:101D1B00120200500790E6A0E04401F090E6A0E02C
:031D2B004480F001
:011D2E002292
:03000300022926A9
:10292600C0E0C083C082C0D075D000C004C005C05E
:1029360006C00790E6017443F0E53D703790F0005D
:1029460074AAF0A37411F0A374CCF0A374EEF09003
:10295600E690E4F090E6917405F0300419AF35AED8
:1029660034AD33AC328F0C8E0B8D0A8C0975080F83
:10297600D2078002153DA283B39283D007D006D03A
:0C29860005D004D0D0D082D083D0E03245
:03000B00022717B2
:10271700C0E0C0F0C083C082C0D075D000C000C088
:1027270001C002C003C004C005C006C00785298CCC
:10273700852B8AE5086016D2831508E508704C904A
:10274700E600E054FDF0000000C283803E30073B06
:10275700AF0CAE0BAD0AAC09EF24FFF50CEE34FF5E
:10276700F50BED34FFF50AEC34FFF509E4FFFEFD48
:10277700FCAB0CAA0BA90AA809C3120FB8700CC2AC
:102787000790E600E04402F0000000D007D006D032
:1027970005D004D003D002D001D000D0D0D082D051
:0627A70083D0F0D0E03207
:03003300022E2A70
:042E2A0053D8EF3258
:101121000129D1012B4A043200000000C107C1048A
:10113100012E0004360000000001450C0147110199
:10114100400501220E01310002430FA04434EA00A0
:0A115100000000443501000000001A
:1024EB0090E6047480F00000007402F0000000E439
:0524FB00F000000022CA
:102D4B0085298C852B8AE58954F04401F589438EBE
:062D5B0008D28CD2A9226F
:062DC800C2817F647E0061
:0C2DCE00EF4E6007EF1F70F81E80F5222A
:102C890090E6187408F000000090E619F0000000C2
:0F2C990090E61AF000000090E61BF00000002209
:102CA80090E6187409F000000090E619F0000000A2
:0F2CB80090E61AF000000090E61BF000000022EA
:101EE10090E6007412F090E60B7403F0000000908D
:101EF100E6047480F00000007402F0000000740435
:101F0100F00000007406F00000007408F00000000A
:101F1100E4F000000000000090E61274E8F0000018
:101F210000E490E613F000000090E614F0000000D9
:101F310090E615F000000090E6187408F00000002B
:101F410090E619F000000090E61AF000000090E61B
:101F51001BF000000090E6097404F000000090E618
:101F610070E04401F000000090E6727408F0000097
:101F71000090E6207402F0000000E490E621F000F9
:101F8100000090E602F000000090E603F090E60108
:101F91007443F043AF0100000090E61074A0F0001C
:101FA100000090E611F000000090E65EE04408F0C9
:101FB100000000E490E68DF090E65EE04404F0005D
:101FC1000000E490E68FF0D20043B20843B20275FC
:101FD100B5F0122E2290E67AE054FEF0E4F5B0C29C
:101FE100817F64FE122DCED281122D4B7563357522
:101FF10064257B027D107FA0122C64903525E0F5CD
:1020010046A3E0F52C754606E4F52CE5466401602F
:102011000BE54664026005E546B405089034E574B5
:10202100BAF0C206E54664036005E546B4040890CB
:1020310034E574B8F0C206E54664066005E546B4C9
:1020410016089034E57420F0D206E5466407600571
:10205100E546B408089034E57430F0D206E546B49C
:1020610009089034E574BAF0D206E4F53DD2832232
:10165000E52E6402600302184DAF45EFFD7C00AE3D
:101660002FAF30120EC58E248F259034E6E0FCA3F8
:10167000E0FDA3E0FEA3E0FFEC120CC1C004C00536
:10168000C006C007AC2FAD30E4120CC6A804A905F3
:10169000AA06AB07D007D006D005D004120C24C090
:1016A00004C005C006C007AF45E4FCFDFE120CC136
:1016B000D003D002D001D000120B1B120CFF8E43BE
:1016C0008F44E54445437005F543754401C3E54443
:1016D00094D0E5439407502AE4F52D9034E5E0FFDB
:1016E000AB44AA437D127C30122C22AE43AF44ABF4
:1016F00007AA06E4F9F8AE24AF25FCFD120F450257
:101700001806752D017543077544D09034E5E0FF48
:10171000AB44AA437D127C30122C22AE24AF25AB01
:1017200007AA06E4F9F8AE43AF44FCFD120F45A842
:1017300004A905AA06AB079034E6E0FCA3E0FDA3EC
:10174000E0FEA3E0C39BFFEE9AFEED99FDEC98FC52
:10175000E47BE87A03F9F81229928F398E388D37B5
:101760008C36E545B40C0EE4120CC17B857AEB791E
:101770007178418027E545AF39AE38AD37AC36B426
:10178000180EE4120CC17B857AEB79F17841800C5C
:10179000E4120CC17B857AEB79717842120B1B1233
:1017A0000CFF903501120FF0E4FFFEFDFCAB39AAEF
:1017B00038A937A836C3120FB85009E4F539F538FF
:1017C000F537F536AE24AF25AB07AA06E4F9F8AE37
:1017D00043AF44FCFD120F45C004C005C006C0075E
:1017E000AF39AE38AD37AC36E47BE87A03F9F8129E
:1017F0000F45D003D002D001D000EF2BFFEE3AFE10
:10180000ED39FDEC38FC903527120FF0C2A8C283E9
:1018100090E6017440F01224EB3080FD2080FD3012
:1018200080FD2080FDD2A8C3E54494D0E543940711
:101830004018752E039034EA120FFC00000000904F
:10184000E600E054FDF0D2838003752E04E52E649B
:101850000370659034EAE0FCA3E0FDA3E0FEA3E0A2
:10186000FFE4FAF9F8EF2401FFEA3EFEE93DFDE866
:101870003CFC9034EA120FF0903501E0FCA3E0FD4F
:10188000A3E0FEA3E0FF9034EAE0F8A3E0F9A3E0D0
:10189000FAA3E0FBC3120FA2401E903501E0FCA3A7
:1018A000E0FDA3E0FEA3E0FF9034EA120FF090E623
:1018B00000E04402F0752E04E52EB40418C2833013
:1018C00080FD2080FD3080FD90E6017440F0C2A8CC
:0618D000C283752E012207
:0227FE00D322E4
:022E3200D322A9
:022E3400D322A7
:102D8D0090E680E030E704D2058002C20590E6BAF5
:052D9D00E0F53AD3222D
:102DDA0090E740E53AF0E490E68AF090E68B04F05A
:022DEA00D322F2
:082E1A0090E6BAE0F523D32293
:102DEC0090E740E523F0E490E68AF090E68B04F05F
:022DFC00D322E0
:022E3600D322A5
:022E3800D322A3
:022E3A00D322A1
:1002000090E6B9E012102D0241B30254B7029AB938
:1002100002BABB034DBD038DBF039CC003C9C1041B
:1002200024C2046DC80494C904E2CA0510CB056752
:10023000CD0593CF05A4D10872D209FAD300000BE3
:1002400017C2A890E6017440F00000001224EBD21F
:10025000A802058590E6BDE0FE90E6BCE07C0024A7
:1002600000F55DEC3EF55C9034E5E0FF200616AD50
:100270005D90E6BEE0FB90E7407563E77564401271
:100280002C640204FE90E6BEE0FB756BE7756C40E3
:10029000AD5DAC5C122B040204FEE490E68AF090A3
:1002A000E68BF090E6A0E020E1F99034E5E0C3139E
:1002B000FF7AE77B407D03020561E490E68AF090D7
:1002C000E68BF090E6A0E020E1F978057C357D0131
:1002D0007B0120062F7AE679BC7E007F01120E504A
:1002E00090E6BEE0FF7E0078067C357D017B017ADA
:1002F000E77940120E509034E5E0C313FF90E6BE5C
:10030000E00480417AE679BD7E007F01120E5078CC
:10031000067C357D017B017AE679BC7E007F011287
:100320000E5090E6BEE0FF7E0078077C357D017BB5
:10033000017AE77940120E509034E5E0C313FF9044
:10034000E6BEE02402FD7A357B05020561E490E615
:100350008AF090E68BF090E6A0E020E1F990E7408B
:10036000E0FCA3E0FDA3E0FEA3E0F5358E348D3381
:100370008C32E4FFFEFDFCAB35AA34A933A832C3AE
:10038000120FB87004C204807ED204807AE4F508AB
:10039000C20790E600E04402F000000090E6BAE0F8
:1003A00030E00E90E6BCE05490FFE5B0546F4FF59E
:1003B000B090E6BAE030E10E90E6BCE05460FFE5B4
:1003C000B0549F4FF5B0020598E490E68AF090E6AD
:1003D0008BF090E6A0E020E1F990E740E0FCA3E09C
:1003E000FDA3E0FEA3E0F5358E348D338C32E4FFBF
:1003F000FEFDFCAB35AA34A933A832C3120FB87086
:1004000004C2048002D204E4F508C207753D0190DD
:10041000E600E04402F0000000E490E68AF000000C
:100420000002059DE54024F090E740F0A3E522F0AE
:10043000E4A3F0A3F0A3F0A20633A3F0A3E52CF00D
:100440009034E5E090E747F0A3E546F0300505E499
:10045000A3F0800690E74974FFF0000000E490E606
:100460008AF000000090E68B740A020B11E490E61B
:100470008AF090E68BF090E6A0E020E1F990E7406A
:10048000E014600C14600B24026003020B19802539
:100490008032803FE490E68AF090E68BF090E6A010
:1004A000E020E1F990E740E014601914602524028F
:1004B0006003020B197529F4752B5390E600740242
:1004C000F0020B197529E8752BA590E600740AF067
:1004D000020B197529D1752B4A90E6007412F002AF
:1004E0000B1990E6BCE0755C00F55DFD90E6BEE0A2
:1004F000FB7EE77563E77564407FA0122C64E4908F
:10050000E68AF000000090E6BEE090E68B020B1158
:10051000E490E68AF090E68BF090E6A0E020E1F926
:1005200090E6BCE0D394075003020B1978057C35A4
:100530007D017B017AE679BC7E007F01120E50902E
:10054000E6BEE0FF7E0078067C357D017B017AE720
:100550007940120E5090E6BEE004FD7A357B057FAF
:1005600050122CE3020B19E490E68AF090E68BF02F
:1005700090E6A0E020E1F990E740E07005122C89B8
:100580008003122CA8E490E68AF000000090E68B2D
:10059000020B11122DC8D281E490E68AF090E68B0E
:1005A000F0020B19E490E68AF090E68BF090E6A05A
:1005B000E020E1F9E4F55EF55FAF5F74402FF5826E
:1005C000E434E7F583E0FE742B2FF582E43435F54F
:1005D00083EEF0055FE55F7002055E6440455E7086
:1005E000D890352BE02460B40C00400302086490DE
:1005F00005FD75F003A4C58325F0C58373020621AC
:100600000206C00206CA02071902072F02073B02B0
:10061000075A020819020835020864020864020831
:100620003EC2817F057E001227ADD2817F057E000C
:100630001227ADE4F508F50CF50BF50AF509C2072C
:1006400012207190352CE07040F531C2A890E6017F
:100650007443F00000001224EBD2A87F011229D6C7
:100660009034E6120FFC00004E209034E6E0FCA32C
:10067000E0FDA3E0FEA3E0FF8531661218D6122C40
:10068000899030217408F0802890352CE064017046
:100690002090E600E04402F0000000753101752E64
:1006A00001C2A8C28390E6017440F0000000122449
:1006B000EB754805754900754A03754BC00208641F
:1006C00090352CE0FF1229D6807990352DE0FEA3DD
:1006D000E07C002400F549EC3EF548A3E0FEA3E0F1
:1006E0002400F53FEC3EF53EA3E0FEA3E02400F538
:1006F0004BEC3EF54AA3E0FEA3E02400F542EC3EBD
:10070000F541F568854269AB4BAA4AAD3FAC3EAFB7
:1007100049AE481225B802086490352CE0FCA3E0ED
:10072000FDA3E0FEA3E0FF9034E6120FF080147BFF
:10073000017A35792C1221B702086490352CE0FF3C
:10074000122A189034E6E0FCA3E0FDA3E0FEA3E04B
:10075000FF8531661218D602086490352CE024EF2C
:10076000604124EF604D24DE606724DE606D246705
:10077000606E146003020808E5317013C2A890E6A9
:10078000017440F00000001224EBD2A8020808E532
:10079000316401707390E6017440F0000000752E22
:1007A000028065E531704DF508F50CF50BF50AF59D
:1007B000098033E5317051F508F50CF50BF50AF5B4
:1007C00009C20790E600E04402F00000007F0180CB
:1007D00005E5317033FF122496802D122DC8D28189
:1007E000E5317010F508C20790E600E04402F00021
:1007F00000008014903501E0FCA3E0FDA3E0FEA31F
:10080000E0FF9034EA120FF0E490E68AF000000076
:1008100090E68BF0000000804B90352CE0700B12BE
:100820002C899030217408F0803A122CA890302145
:100830007410F0802F7B017A35792C122DFE9035C3
:100840002CE0FF30E00CA3E05490FEE5B0546F4E76
:10085000F5B0EF30E10E90352DE05460FFE5B05477
:100860009F4FF5B0E490E68AF000000090E68B021E
:100870000B11E4F55EF55F7440255FF582E434E723
:10088000F583E4F0055FE55F7002055E6440455E58
:1008900070E5E53170137FE87E03FDFCAB0CAA0B1D
:1008A000A90AA809120F4580689034EAE0F8A3E08D
:1008B000F9A3E0FAA3E0FB903501E0FCA3E0FDA37F
:1008C000E0FEA3E0C39BFFEE9AFEED99FDEC98FCE1
:1008D000120CC17B857AEB79717841120C24C0042B
:1008E000C005C006C007E54575F00C84FCE4120C99
:1008F000CBA804A905AA06AB07D007D006D005D01F
:1009000004120C24E4FBFA797A7844120B1B120CC3
:10091000FF903002120FF09034E6E0FCA3E0FDA35C
:10092000E0FEA3E0FF122CFF903006EFF09034E6DB
:10093000E0FCA3E0FDA3E0FEA3E0FF122DA29030B7
:1009400007EFF09034E6E0FCA3E0FDA3E0FEA3E0B7
:10095000FF122DB5903008EFF09034E6E0FCA3E0F4
:10096000FDA3E0FEA3E0FF1227F3903009EFF0A310
:10097000E547F0A3E540F0A3E522F0E54890301DFF
:10098000F0E549A3F0E54AA3F0E54BA3F09030224F
:100990003005057402F080037401F0E4F55EF55F44
:1009A000AF5F74012FF582E43430F583E0FE7440CC
:1009B0002FF582E434E7F583EEF0055FE55F700222
:1009C000055E6422455E70D87EE77563E775646EE8
:1009D0007B027D107FA0122C647EE77563E775644F
:1009E000707B107D187FA0122C64E490E68AF000E2
:1009F000000090E68B7440020B11E4F55EF55F7425
:100A000040255FF582E434E7F583E4F0055FE55FB8
:100A10007002055E6440455E70E5E54390E742F094
:100A2000AF44EFA3F0E52490E74AF0AF25EFA3F041
:100A3000A3E545F0A3E52DF09034EAE0FCA3E0FD4A
:100A4000A3E0FEA3E0FF122CFF90E74EEFF09034FE
:100A5000EAE0FCA3E0FDA3E0FEA3E0FF122DA290DC
:100A6000E74FEFF09034EAE0FCA3E0FDA3E0FEA343
:100A7000E0FF122DB590E750EFF09034EAE0FCA3D0
:100A8000E0FDA3E0FEA3E0FF1227F390E751EFF0B3
:100A9000903527E0FCA3E0FDA3E0FEA3E0FF122CCD
:100AA000FF90E752EFF0903527E0FCA3E0FDA3E0D4
:100AB000FEA3E0FF122DA290E753EFF0903527E060
:100AC000FCA3E0FDA3E0FEA3E0FF122DB590E754E8
:100AD000EFF0903527E0FCA3E0FDA3E0FEA3E0FFEC
:100AE0001227F390E755EFF090E767E531F0AC3867
:100AF000EC90E769F0E539A3F0E52F90E77EF0AFE1
:100B000030EFA3F0E490E68AF000000090E68B74EA
:0A0B100040F00000008002D322C371
:010B1A0022B8
:102D1B00C0E0C083C082D2015391EF90E65D740195
:082D2B00F0D082D083D0E03229
:102D6100C0E0C083C0825391EF90E65D7404F0D05F
:062D710082D083D0E032A5
:102D7700C0E0C083C0825391EF90E65D7402F0D04B
:062D870082D083D0E0328F
:102A5200C0E0C083C08290E680E030E70E850D11B1
:102A6200850E12851513851614800C851511851691
:102A720012850D13850E145391EF90E65D7410F0DC
:072A8200D082D083D0E032C6
:102D3300C0E0C083C082D2035391EF90E65D740874
:082D4300F0D082D083D0E03211
:102A8900C0E0C083C08290E680E030E70E850D117A
:102A9900850E12851513851614800C85151185165A
:102AA90012850D13850E145391EF90E65D7420F095
:072AB900D082D083D0E0328F
:012E3C003263
:012E3D003262
:012E3E003261
:012E3F003260
:1023D600C0E0C0F0C083C082C0D075D000C000C0CD
:1023E60001C002C003C004C005C006C007C2AF904A
:1023F60034EAE0F8A3E0F9A3E0FAA3E0FB903501A4
:10240600E0FCA3E0FDA3E0FEA3E0C39BFFEE9AFE83
:10241600ED99FDEC98FC120CC17B857AEB7971780D
:1024260041120C24C004C005C006C007E54575F07E
:102436000C84FCE4120CCBA804A905AA06AB07D0B1
:1024460007D006D005D004120C24E4FBFA797A787A
:1024560044120B1B120CFF90E7C4120FF000000091
:1024660090E68F7408F00000005391EF90E65FE06D
:102476004404F0D2AFD007D006D005D004D003D0A4
:1024860002D001D000D0D0D082D083D0F0D0E032BC
:10266D00C0E0C0F0C083C082C0D075D000C000C033
:07267D0004C005C006C00700
:10268400C2AF90E6A1E020E1F990E780E0FF24EFFB
:10269400602214603C2413603D24EF704D90E78168
:1026A400E0FCA3E0FDA3E0FEA3E0F5398E388D370E
:1026B4008C368036752E01C2A890E600E04402F004
:1026C40000000090E6017440F00000001224EB804A
:1026D40019752E028014903501E0FCA3E0FDA3E0FF
:1026E400FEA3E0FF9034EA120FF000000090E68DA4
:0E26F400E4F05391EF90E65FE04408F0D2AFBF
:10270200D007D006D005D004D000D0D0D082D0835C
:05271200D0F0D0E03220
:012E4000325F
:012E4100325E
:012E4200325D
:012E4300325C
:012E4400325B
:012E4500325A
:012E46003259
:012E47003258
:012E48003257
:012E49003256
:012E4A003255
:012E4B003254
:012E4C003253
:012E4D003252
:012E4E003251
:012E4F003250
:012E5000324F
:012E5100324E
:012E5200324D
:012E5300324C
:012E5400324B
:012E5500324A
:012E56003249
:012E57003248
:012E58003247
:012E59003246
:012E5A003245
:012E5B003244
:012E5C003243
:012E5D003242
:102800001201000200000040181621090000010218
:1028100000010A0600020000004001000902270032
:1028200001010080FA0904000003FF000000070511
:102830008202000200070581024000000705010234
:102840004000000902190001010080FA090400009B
:1028500001FF000000070582024000000403090494
:1028600014035100480059002D0043004300440068
:1028700020002000240351004800590035002D009D
:1028800049004900200020002000200020002000F6
:0A28900020002000200020000000BE
:102BC10090E682E030E004E020E60B90E682E0301F
:102BD100E119E030E71590E680E04401F07F147ED2
:0C2BE100001227AD90E680E054FEF022C8
:102C3F0090E682E044C0F090E681F0438701000007
:042C4F00000000225F
:102B920030080990E680E0440AF0800790E680E081
:102BA2004408F07FDC7E051227AD90E65D74FFF0ED
:0F2BB20090E65FF05391EF90E680E054F7F02249
:1027AD008E6B8F6C90E600E054187012E56C24016E
:1027BD00FFE4356BC313F56BEF13F56C801590E6E5
:1027CD0000E05418FFBF100BE56C25E0F56CE56BD0
:1027DD0033F56BE56C156CAE6B7002156B4E6005C9
:0627ED00122C5380EE22C5
:082E2200E4F578D2E9D2AF22F9
:102AC00090E678E020E6F9C2E990E678E04480F00C
:102AD000EF25E090E679F090E678E030E0F990E6D6
:102AE00078E04440F090E678E020E6F990E678E07F
:062AF00030E1D6D2E9221C
:102B6000A90790E678E020E6F9E578702390E6780A
:102B7000E04480F0E925E090E679F08D73AF03A999
:102B8000077574018A758976E4F577757801D32223
:022B9000C3225E
:102B2C00A90790E678E020E6F9E578702590E6783C
:102B3C00E04480F0E925E0440190E679F08D73AF34
:102B4C0003A9077574018A758976E4F5777578039E
:042B5C00D322C3229B
:03004B000222CEC0
:1022CE00C0E0C083C082C085C084C086758600C051
:1022DE00D075D000C000C001C002C003C006C00748
:1022EE0090E678E030E2067578060223B890E6783C
:1022FE00E020E10CE578640260067578070223B8E9
:10230E00E57824FE605F14603624FE70030223A974
:10231E0024FC70030223B5240860030223B8AB74B7
:10232E00AA75A976AF7705778F82758300120E7620
:10233E0090E679F0E57765737070757805806B902F
:10234E00E679E0AB74AA75A976AE778E82758300B6
:10235E00120EA3757802E5736401704E90E678E074
:10236E004420F08045E57324FEB5770790E678E0CB
:10237E004420F0E57314B5770A90E678E04440F017
:10238E0075780090E679E0AB74AA75A976AE778E73
:10239E0082758300120EA30577800F90E678E044D5
:1023AE0040F075780080037578005391DFD007D028
:1023BE0006D003D002D001D000D0D0D086D084D0A9
:0823CE0085D082D083D0E032FB
:022BED00A90736
:102BEF00AE1BAF1C8F828E83A3E064037017AD0101
:102BFF0019ED7001228F828E83E07C002FFDEC3E59
:092C0F00FEAF0580DF7E007F00AE
:012C18002299
:102CC700122B2CE57824FA600E146006240770F3A3
:0C2CD700D322E4F578D322E4F578D32270
:102CE300122B60E57824FA600E146006240770F353
:0C2CF300D322E4F578D322E4F578D32254
:102C53007400F58690FDA57C05A3E582458370F994
:012C6300224E
:0300430002250093
:0300530002250083
:10250000022D1B00022D7700022D6100022D3300E9
:10251000022A5200022A8900022E3C00022E3D00AF
:10252000022E3E00022E3F000223D60002266D003E
:10253000022E4000022E4100022E4200022E4300D5
:10254000022E4400022E3D00022E4500022E4600BF
:10255000022E4700022E4800022E4900022E4A0099
:10256000022E4B00022E3D00022E3D00022E3D00A9
:10257000022E4C00022E4D00022E4E00022E4F0065
:10258000022E5000022E5100022E5200022E530045
:10259000022E5400022E5500022E5600022E570025
:1025A000022E5800022E5900022E5A00022E5B0005
:0825B000022E5C00022E5D000A
:042E2E0000000000A0
:10115B004134E5BA6040300101000000000000009E
:10116B000000000000000000000000000000000074
:10117B000000000000000000000000000000000064
:10118B000000000000000000000000000000000054
:10119B0000000000000000004130000064A430415A
:1011AB0030888000308600253086505030862D26C2
:1011BB003086082830860D173086092630860028A1
:1011CB00308605263086A728308607253086808016
:1011DB003086292530860040308627023086161649
:1011EB003086270630861F17308636263086A617A0
:1011FB00308603263086A41730861F2830860526B6
:10120B003086202830860425308620203086270023
:10121B003086171D30862500308620173086102823
:10122B00308605193086170330862706308617035C
:10123B0030861741308626603086175A3086231742
:10124B003086112230861741308625003086902754
:10125B0030860026308618283086002E30862A28C5
:10126B003086081C308614703086700330861470FC
:10127B00308670043086147030867005308614709A
:10128B00308670093086170C3086001430860020AB
:10129B0030860014308600503086031430860020D0
:1012AB0030860314308600503086041430860020BC
:1012BB0030860414308600503086051430860020AA
:1012CB003086240530861400308650013086255038
:1012DB003086502D308626083086280D308617092B
:1012EB003086260030862805308626A730862807CC
:1012FB003086258030868029308625003086402731
:10130B003086021630861627308606203086173632
:10131B00308626A630861703308626A43086171F04
:10132B0030862805308626203086280430862520F6
:10133B00308620273086001730861D25308600200A
:10134B00308617103086280530861A17308603270B
:10135B003086061730860317308641263086601795
:10136B003086AE25308600903086270030862618D2
:10137B003086280030862E2A3086280830861D05B8
:10138B003086147030867009308617203086140032
:10139B00308620243086140030865002308625504B
:1013AB003086502D308626083086280D308617095A
:1013BB003086260030862805308626A730862807FB
:1013CB003086258030868029308625003086402760
:1013DB00308602163086162730860617308636265C
:1013EB003086A617308603263086A41730861F2832
:1013FB00308605263086202830860425308620202E
:10140B00308627003086171D308625003086202138
:10141B00308617103086280530861B173086032739
:10142B0030860617308603173086412630866017C4
:10143B003086AE2530860090308627003086261801
:10144B003086280030862E2A3086280830861E17D4
:10145B0030860A0530861470308670093086161671
:10146B0030861616308616163086161630861616E9
:10147B0030861616308616163086161630861616D9
:10148B0030861616308616163086161630861616C9
:10149B0030861616308616163086161630861400D1
:1014AB0030862024308614003086502B3086302C2A
:1014BB0030862C2C30862C003086022530865050FE
:1014CB0030862D263086082830860D173086092663
:1014DB0030860028308605263086A72830860725DB
:1014EB00308680803086291730860525308600406F
:1014FB00308627023086161630862706308617363A
:10150B00308626A630861703308626A43086171F12
:10151B003086280530862620308628043086252004
:10152B00308620273086001730861E253086002017
:10153B0030862117308610283086051B308617031E
:10154B00308627063086170330861747308626608D
:10155B00308617AE308625003086902730860026E1
:10156B00308618283086002E30862A283086081EB2
:10157B003086083130861440308640143086202067
:10158B0030861410308610343086140030861014D8
:10159B0030860020308614003086401330861802C7
:1015AB003086147030867004308614703086700369
:1015BB003086147030867017308620023086140007
:1015CB00308620023086140030865004308614009A
:1015DB003086200430861400308650223086031467
:1015EB0030860020308603143086005030862C2C39
:1015FB0030862C2C309E018A301A10D8308200296C
:10160B00301E00C83EDA0F033EDEC0073ED801EFA6
:10161B003EE2A46B3EE0067D3EDC007030440404E9
:10162B003EE643033EE4D2083ED600BD3EE68303CE
:10163B0030E4637230E2725330E0547030E6C4CC65
:04164B0030E88050B3
:082CFF008F6E8E6D8D6C8C6BE5
:102D0700E4FFFEFDE56B7818120FDC8F728E718D74
:032D1700708C6F4E
:012D1A002296
:102DA200E4FFFEE4FC7810120FC98F6E8E6D8D6CFD
:022DB2008C6B28
:012DB40022FC
:102DB500E4FFE4FDFC7808120FC98F6E8E6D8D6CF3
:022DC5008C6B15
:012DC70022E9
:0A27F300EFF56EE4F56DF56CF56B83
:0127FD0022B9
:042C64008F608B6290
:102C680090353BEDF0E560C313FF7A357B3B7D0182
:102C7800122CE3E560C313FFAB64AA63AD62022CB8
:012C8800C784
:0E2AF600E0FF756B35756C3B7D1A7B027C3002
:042B04008F678B6AE2
:102B0800EC90353DF0EDA3F0E567C313FF7A357B14
:102B18003D7D02122CE3E567C313FFAB6CAA6BADD6
:042B28006A022CC74A
:092C19009034E5E0FF7A007C3004
:022C2200A90700
:102C2400EC90353FF0EDA3F0EAA3F0EBA3F0E9C399
:0B2C340013FF7A357B3F7D04022CE388
:10207100E4F560F5619034E5E0FF7B0F7AE07DD413
:102081007C30122C227B017D1A122C199034E5E050
:10209100FF7BD87A107D1A7C30122C227F0A7E00B9
:1020A1001227ADE4F560F561E561AE607802C333F6
:1020B100CE33CED8F9FF2441F58274303EF583E06A
:1020C100FCA3E0FD74432FF58274303EF583E0FA02
:1020D100A3E0FB9034E5E0FF122C220561E561707D
:1020E100020560C39429E560940140BC7F0A7E002B
:1020F1001227AD9034E5E0FF7B0A7A007DBA7C308F
:10210100122C227F0A7E001227AD9034E5E0FF7B7E
:10211100307A537DB07C30122C229034E5E0FF7B85
:10212100FF7A007D5E7C30122C227B207D12122CE6
:10213100199034E5E0FF7B027A187D647C30122C23
:1021410022E4FF1229D6E4903505F0A37405F0E4EA
:10215100A3F0A3F0A3F0A37403F0A374C0F0E4A36D
:10216100F0A3F0F568F5697BC07A03FDFCFF7E05FD
:102171001225B87F1E122A189034E6120FFC0003B4
:102181000D409034E6E0FCA3E0FDA3E0FEA3E0FFF8
:10219100E4F5661218D6E4903505F0A3740FF090BB
:1021A100350874FFF090350CF0903510F07B017A12
:0621B1003579050221B79B
:0621B7008B628A6389645B
:1021BD00E4F565F566783B7C357D017BFF7A2E79FC
:1021CD002EFE7F02120E509034E5E0FF756B3575D3
:1021DD006C3B7DB0122B0090353BE0F565A3E0F52F
:1021ED0066AB62AA63A964900001120E76540C7A54
:1021FD0000FB7E007802C333CE33CED8F9FB5303F8
:10220D0030EB42669034E5E0FFAB66AA657DB07CAD
:10221D0030122C229034E5E0FF756B35756C3B7BED
:10222D00027DE47C3E122B0490353BE0F565A3E086
:10223D00F566AB62AA63A964900001120E76540391
:10224D007B00FA530203EA42659034E5E0FF7DE43A
:10225D007C3E122C229034E5E0FFAB62AA63A964A8
:10226D00900007120E76FB7A007D567C30122C22E0
:10227D009034E5E0FFAB62AA63A96490000B120EE7
:10228D0076FB7A007D587C30122C229034E5E0FFED
:10229D00AB62AA63A964900003120E76FB7A007DEF
:1022AD005A7C30122C229034E5E0FFAB62AA63A970
:1022BD0064900007120E76FB7A007D5C7C30022C58
:0122CD0022EE
:0425B8008A668B673D
:1025BC00ED2404F56BE43CF56AE5692404F56DE45F
:1025CC003568F56CEF24FFF56FEE34FFF56EE567BB
:1025DC0024FFF571E56634FFF5709034E5E0FFAB50
:1025EC006DAA6C7D027C30122C229034E5E0FFAB9E
:1025FC006BAA6A7D047C30122C229034E5E0FFE556
:10260C006D2571FBE56C3570FA7D067C30122C2241
:10261C009034E5E0FFE56B256FFBE56A356EFA7DDE
:10262C00087C30122C229034E5E0FFE567241AFB7D
:10263C00E43566FA7D0A7C30122C229034E5E0FFFA
:10264C007B727A067D0C7C30122C22752F0675302D
:10265C00729034E5E0FF7BDC7A107D1A7C30022C22
:01266C00224B
:0818D6008F658E648D638C6246
:1018DE00E4F567F568F569F56A90353B120FFC0083
:1018EE00000000AF45EFFD7C00AE2FAF30120EC5ED
:1018FE008E248F25E5666003021B0A852F698530CD
:10190E006AE569F53CE56AF53BAF45EFFD7C00AE57
:10191E0069AF6A120EC5E4FCFD7BE87AFDF9F81298
:10192E000F4590353B120FF090353BE0FCA3E0FDE8
:10193E00A3E0FEA3E0FF1227F38F2690353BE0FCD9
:10194E00A3E0FDA3E0FEA3E0FF122DB58F27903597
:10195E003BE0FCA3E0FDA3E0FEA3E0FF122DA28F6F
:10196E002890353BE0FCA3E0FDA3E0FEA3E0FF12D0
:10197E002CFF8F2A90353BE0FCA3E0FDA3E0FEA3F5
:10198E00E0FFAB65AA64A963A862D3120FA250034D
:10199E00021A567543FD7544E8752D01903000749A
:1019AE0001F09034E5E0FFAB44AA437D127C301287
:1019BE002C2290353BE0F8A3E0F9A3E0FAA3E0FB7C
:1019CE00C3E5659BFFE5649AFEE56399FDE56298C4
:1019DE00FCE47BE87A03F9F81229928F658E648D08
:1019EE00638C628F358E348D338C32D204E4F508DD
:1019FE00C207753D0190E600E04402F07F017E00D3
:101A0E001227ADAE24AF25AB07AA06E4F9F8AE4314
:101A1E00AF44FCFD120F45C004C005C006C007E46C
:101A2E007FE87E03FDFCAB65AA64A963A862120F72
:101A3E0045D003D002D001D000EB2FFFEA3EFEE9E5
:101A4E003DFDE83CFC021B04E4F52D903000E06403
:101A5E00017028F0F535F534F533F532C204F5088A
:101A6E00C207753D0190E600E04402F09034E5E0D7
:101A7E00FFE4FBFA7D127C30122C22AE69AF6AAB0A
:101A8E0007AA06E4F9F8AF65AE64AD63AC6212293D
:101A9E0092A804A905AA06AB07AF45E4FCFDFE1209
:101AAE000F458E678F68E4FCFD7BE87AFDF9F8C37D
:101ABE00120FA250067567FD7568E8C3E5689401BC
:101ACE00E567940050067567007568019034E5E08F
:101ADE00FFAB68AA677D127C30122C228567438586
:101AEE006844AE24AF25AB07AA06E4F9F8AE43AFBF
:0C1AFE0044FCFD120F45903527120FF03C
:011B0A0022B8
:1029D600EF14600714600F2402801690E600740A54
:1029E600F0754518801490E6007412F07545308035
:1029F6000990E6007402F075450C903001E545F04B
:102A0600AF45EFFD7C00AE2FAF30120EC58E248F82
:022A1600252277
:102A18008F62EF75F032A4AEF02472F530EE340612
:102A2800F52F9034E5E0FFAB30AA2F7D0C7C3012F7
:102A38002C22903011E562F0AF45EFFD7C00AE2FFF
:0A2A4800AF30120EC58E248F252238
:102DFE00120F1AFBAAF09034E5E0FF7D1E7C300224
:022E0E002C2274
:022496008F6055
:10249800756100756201783B7C357D017BFF7A2E82
:1024A80079307E007F02120E50E5609034E570129C
:1024B800122AF690353BE0F561A3E0F56243620429
:1024C8008010122AF690353BE0F561A3E0F56253DF
:1024D80062FB9034E5E0FFAB62AA617D1A7C3012A2
:0224E8002C22A4
:0124EA0022CF
:100B1B00EC4D6011E8497017ED33EC3304600DE4D4
:100B2B00FCFFFEFD22E933E8330470F8020D6B1273
:100B3B000D3658046009E4CC248150062850090274
:100B4B000D75284003020D72C0E0EB4A7044B9806A
:100B5B0006D0E0FB020D61EF4E701CBD8008EBFF71
:100B6B00EAFEE9FD80EBE98DF0A4FEE5F0020C0452
:100B7B00E9CDF9EAFEEBFFEF89F0A4FCE5F0CE89B5
:100B8B00F0A42EFFE435F0CD89F0A42DFEE435F072
:100B9B008067EF4E7005BD80D780C3EF8BF0A4ACA0
:100BAB00F0EE8BF0A42CFCE435F0F8EF8AF0A42CDB
:100BBB00E5F038FCE433CB8DF0A42CFCE5F03BF8EE
:100BCB00EE8AF0A42CFCE5F038F8E433CF89F0A4DE
:100BDB002CFCE5F038CF3400CE89F0A42FFFE5F0E4
:100BEB003EFEE433C98DF0A42EFEE5F039CD8AF03C
:100BFB00A42FFFE5F03EFEE43DFD33D0E0FB5007B4
:100C0B000BBB000F020D75EC2CFCEF33FFEE33FE2C
:060C1B00ED33FD020D4D5A
:100C2100020D75EC5D046005E859047003020D6B5B
:100C3100120D36580460F6EC4860F2EC7004FDFECB
:100C4100FF22C860DB2481C85009C39860025006A6
:100C5100020D729850CAF582E9294B4A7005AB82A0
:100C6100020D6175F0007C1A7880C3EF9BEE9AED5E
:100C710099400DC3EF9BFFEE9AFEED99FDE842F01E
:100C8100DC23ACF0D0E0FFD0E0FED0E0FDAB822071
:100C9100E7101BEB60BAEC2CFCEF33FFEE33FEEDFB
:100CA10033FD020D4DE803F830E705C0F075F000A3
:100CB100EF2FFFEE33FEED33FD40B830E7C280AADF
:100CC10075F020800E75F010800575F0087D007EAE
:100CD100007F003392D530D503120F94EC334010CE
:100CE100EF33FFEE33FEED33FDEC33FCD5F0ED22B7
:0E0CF100E5F0247EA2D513CC92E7CDCEFF22F3
:100CFF00EDD2E7CD33EC3392D524814006E4FFFEED
:100D0F00FDFC22FCE4CFCECDCC24E0501174FF804B
:100D1F00EDC3CC13CCCD13CDCE13CECF13CF0470E8
:070D2F00F030D5DE020F9445
:100D3600E9D2E7C933E833F892D5EDD2E7CD33EC03
:070D460033FC5002B2D5227C
:100D4D00EC30E7100FBF000C0EBE00080DBD000407
:100D5D000BEB6014A2D5EB13FCED92E7FD2274FFB3
:100D6D00FCFDFEFF22E480F8A2D574FF13FC7D800C
:030D7D00E480EF20
:0300000002289A39
:0C289A00787FE4F6D8FD7581780228E113
:100D8000E709F608DFFA8046E709F208DFFA803E55
:100D900088828C83E709F0A3DFFA8032E309F60842
:100DA000DFFA8078E309F208DFFA807088828C83AA
:100DB000E309F0A3DFFA806489828A83E0A3F6085E
:100DC000DFFA805889828A83E0A3F208DFFA804C38
:100DD00080D280FA80C680D4806980F2803380100F
:100DE00080A680EA809A80A880DA80E280CA803378
:100DF00089828A83ECFAE493A3C8C582C8CCC583F0
:100E0000CCF0A3C8C582C8CCC583CCDFE9DEE780BF
:100E10000D89828A83E493A3F608DFF9ECFAA9F03E
:100E2000EDFB2289828A83ECFAE0A3C8C582C8CC94
:100E3000C583CCF0A3C8C582C8CCC583CCDFEADEAD
:100E4000E880DB89828A83E493A3F208DFF980CC0F
:100E500088F0EF60010E4E60C388F0ED2402B40408
:100E60000050B9F582EB2402B4040050AF232345AF
:060E70008223900DD073F7
:100E7600BB010CE58229F582E5833AF583E0225031
:100E860006E92582F8E622BBFE06E92582F8E2227B
:0D0E9600E58229F582E5833AF583E4932295
:100EA300F8BB010DE58229F582E5833AF583E8F085
:100EB300225006E92582C8F622BBFE05E92582C831
:020EC300F22219
:100EC500BC000BBE0029EF8DF084FFADF022E4CC11
:100ED500F875F008EF2FFFEE33FEEC33FCEE9DECDA
:100EE500984005FCEE9DFE0FD5F0E9E4CEFD22ED20
:100EF500F8F5F0EE8420D21CFEADF075F008EF2F6A
:100F0500FFED33FD4007985006D5F0F222C398FD5A
:050F15000FD5F0EA22F7
:100F1A00BB010A89828A83E0F5F0A3E022500687A2
:100F2A00F009E71922BBFE07E3F5F009E319228964
:0B0F3A00828A83E493F5F07401932297
:100F4500E88FF0A4CC8BF0A42CFCE98EF0A42CFC4B
:100F55008AF0EDA42CFCEA8EF0A4CDA8F08BF0A4C9
:100F65002DCC3825F0FDE98FF0A42CCD35F0FCEB28
:100F75008EF0A4FEA9F0EB8FF0A4CFC5F02ECD39ED
:0F0F8500FEE43CFCEAA42DCE35F0FDE43CFC225A
:10299200C2D5E830E70FB2D5E4C39BFBE49AFAE470
:1029A20099F9E498F8EC30E717B2D51229C8121059
:1029B2008FE4C39BFBE49AFAE499F9E498F8800364
:1029C20012108F30D50DE4C39FFFE49EFEE49DFDFF
:0429D200E49CFC2263
:0E0F9400C3E49FFFE49EFEE49DFDE49CFC226E
:100FA200EB9FF5F0EA9E42F0E99D42F0EC6480C8C6
:060FB20064809845F02266
:100FB800EB9FF5F0EA9E42F0E99D42F0E89C45F08F
:010FC8002206
:100FC900E8600FECC313FCED13FDEE13FEEF13FF06
:030FD900D8F1222A
:100FDC00E86010ECA2E713FCED13FDEE13FEEF132B
:040FEC00FFD8F02218
:0C0FF000ECF0A3EDF0A3EEF0A3EFF02274
:100FFC00A8828583F0D083D08212101312101312A2
:10100C001013121013E473E493A3C583C5F0C583C6
:10101C00C8C582C8F0A3C583C5F0C583C8C582C83E
:01102C0022A1
:10102D00D083D082F8E4937012740193700DA3A352
:10103D0093F8740193F5828883E473740293686066
:06104D00EFA3A3A380DF66
:1028A600021D2FE493A3F8E493A34003F68001F2FC
:1028B60008DFF48029E493A3F85407240CC8C33333
:1028C600C4540F4420C8834004F456800146F6DF02
:1028D600E4800B0102040810204080901121E47E60
:1028E600019360BCA3FF543F30E509541FFEE493F7
:1028F600A360010ECF54C025E060A840B8E493A3BE
:10290600FAE493A3F8E493A3C8C582C8CAC583CAE8
:10291600F0A3C8C582C8CAC583CADFE9DEE780BEA0
:01164F00009A
:1010530075F008758200EF2FFFEE33FECD33CDCC54
:1010630033CCC58233C5829BED9AEC99E5829840D7
:101073000CF582EE9BFEED9AFDEC99FC0FD5F0D6B4
:10108300E4CEFBE4CDFAE4CCF9A88222B800C1B9DE
:101093000059BA002DEC8BF084CFCECDFCE5F0CB1C
:1010A300F97818EF2FFFEE33FEED33FDEC33FCEB55
:1010B30033FB10D703994004EB99FB0FD8E5E4F910
:1010C300FA227818EF2FFFEE33FEED33FDEC33FCFD
:1010D300C933C910D7059BE99A4007EC9BFCE99AF1
:1010E300F90FD8E0E4C9FAE4CCFB2275F010EF2F36
:1010F300FFEE33FEED33FDCC33CCC833C810D70736
:101103009BEC9AE899400AED9BFDEC9AFCE899F870
:0E1113000FD5F0DAE4CDFBE4CCFAE4C8F92203
:00000001FF
